:020000040800F2
:10000000084E002099010008B1520008433F000843
:10001000AD52000839160008A95900080000000078
:1000200000000000000000000000000001010008C6
:10003000F11F00080000000045010008A15400085D
:10004000B3010008B3010008B3010008B3010008C0
:10005000B3010008B3010008B3010008B3010008B0
:10006000B3010008B3010008B3010008B3010008A0
:10007000B3010008B3010008B3010008B301000890
:10008000B3010008B3010008B3010008B301000880
:10009000B3010008B3010008B3010008B301000870
:1000A000B3010008B3010008B3010008B301000860
:1000B000B3010008B3010008B3010008B301000850
:1000C000B3010008B3010008B3010008B301000840
:1000D000B3010008B3010008B3010008B301000830
:1000E000B3010008B3010008B3010008DFF80CD029
:1000F00000F0C4FC0048004749690008084E002091
:10010000224B19680868B0E8F00F80F30988BFF344
:100110006F8F4FF0000080F311884EF00D0E704786
:100120000000000006480068006880F3088862B696
:1001300061B6BFF34F8FBFF36F8F00DF00BF00BF0B
:1001400008ED00E0EFF30980BFF36F8F0F4B1A68E3
:1001500020E9F00F106008B54FF0BF0080F3118860
:10016000BFF34F8FBFF36F8F07F020F84FF0000001
:1001700080F31188BDE8084019680868B0E8F00FFE
:1001800080F30988BFF36F8F704700BF80000020A5
:10019000EFF3058070470000064880470648004797
:1001A000FEE7FEE7FEE7FEE7FEE7FEE7FEE7FEE727
:1001B000FEE7FEE71B550008ED000008202A04DBDF
:1001C000203A21FA02F00021704721FA02F3D040D0
:1001D000C2F120029140084319467047D2B201E0B3
:1001E00000F8012B491EFBD270470022F6E710B53C
:1001F00013460A4604461946FFF7F0FF204610BD95
:10020000421C10F8011B0029FBD1801A70470246DE
:10021000C9B200E0401C0378002BFBD102E0037858
:100220008B4203D0401E9042F9D200207047F0B4B8
:1002300080EA0102D40F4200B2EB410F02D2024623
:10024000084611464A0042D0C30DDDB2C1F3C75281
:10025000AD1A202D35DAC1F3160141F4000204B1C4
:100260005242C5F1200602FA06F12A411044B3EBCE
:10027000D05F23D0C4B1012DA0EBC35009DCF0BC8A
:100280004FF0004202EAC352DBB200F5000000F07A
:1002900052BB400000F1807000EBC350A0F18070B1
:1002A00040EAD170490009E0490841EAC071A0EB79
:1002B000C35000F50000400800EBC350F0BC00F054
:1002C00031BB6142012202EB4101001BF6E7F0BCA9
:1002D000704781F00041AAE780F00040A7E780EA7C
:1002E000010210B502F00043400022D04A001FD0A6
:1002F000010E01EB1261C0F35600C2F3560240F446
:10030000000042F40002A0FB022000047F39140424
:1003100000D0401C50EA124001D44000491EC2B235
:100320000C0604EBD010401C4008802A02D003E0E9
:10033000002010BD20F00100002900DA0020184341
:1003400010BD30B480EA010202F0004530F00042F6
:1003500021F0004013D090B1C30DD40DC2F31601AB
:10036000C0F31600E41A41F4000140F400027D34A9
:10037000914201D3641C00E04900002C02DA30BC39
:10038000002070474FF400000023914201D3891AE6
:10039000034340084FEA4101F7D151B1914202D1E4
:1003A0004FF0004105E002D24FF0010101E06FF093
:1003B000010103EBC450284430BC00F0B3BA2DE96E
:1003C000FE4F804681EA0300C00F0C46009021F0EA
:1003D000004123F00045B8EB0200A94105D2404698
:1003E000214690461C460B46024623F0004010432F
:1003F00047D0270DC7F30A00C3F30A510290401AF1
:10040000019040286BDAC3F3130040F4801B00987E
:10041000924620B10023D2EB030A63EB0B0B019849
:100420005946C0F14002504600F05BFA06460D46C0
:1004300050465946019A00F063FA10EB08006141FA
:10044000002487EA115284EAE7731A4340D0009AE5
:1004500062B3019A012A4FEA075215DC001B61EBD7
:1004600002014FF0004202EA0752CDE90042001CAF
:1004700041F5801132462B4600F09AFA03B0BDE8F0
:10048000F08F40462146F9E7001B61EB0201001C9A
:1004900041F5801300185B412018A2F5001747EBC7
:1004A000030140EAD570B6196D4111E06D084FEABD
:1004B000360645EAC0754FEA0752001B61EB0201A0
:1004C000001C41F5801149084FEA300000195141E4
:1004D00032462B4603B0BDE8F04F00F05ABA009800
:1004E000012240000023D0EB020263EBE07300988E
:1004F00021464FEAE074B8EB000061EB0401E9E744
:1005000083F000435BE781F0004158E72DE9FE4F9F
:1005100081EA030404F0004421F0004100944FF00C
:10052000000B23F0004350EA01045ED052EA0304BA
:100530005BD0C3F30A54C1F30A552C44A4F2F3343C
:100540000194A0FB0254C1F3130141F48011C3F3E1
:10055000130343F4801301FB024400FB034E840A9F
:10056000970A44EA815447EA8357A4FB0768029537
:100570008D0A05FB07854FEA932C04FB0C542705D5
:10058000029D4FEA065847EA1637B5EB08056EEBB1
:10059000070C870E920E47EA811742EA8312A7FBE7
:1005A0000201B6EB0B0164EB00042B0D43EA0C33A4
:1005B0005E1844EB1C50DA465146E7FB0201C5F3D6
:1005C00013044FEA0B3343EA14534FEA0432019CFD
:1005D00043EA0603A4F10C040294009CCDE900B4A4
:1005E00000F0E6F903B0BDE8F08F00200146F9E71E
:1005F0002DE9F04D81EA030404F0004B21F00045A1
:1006000014464FF0000A23F0004150EA050220D0C2
:1006100054EA01021DD0C5F30A570246C5F313037D
:10062000C1F31300C1F30A5640F4801543F480135C
:10063000A7EB0608101BD64608F2FD3873EB050041
:1006400002D308F1010801E092185B41B8F1000FF4
:1006500003DA00200146BDE8F08D00204FF4801140
:10066000064684460EE0171B73EB050705D3121BE5
:1006700063EB050306434CEA010C49084FEA3000DE
:1006800092185B4150EA0107EDD152EA030012D003
:1006900082EA040083EA0501084305D0101BAB4140
:1006A00006D20122002306E000224FF0004302E0C0
:1006B0006FF0010253101AEB06004CEB085110EBDF
:1006C0000A0041EB0B01BDE8F04D00F062B9C10F2B
:1006D00080EAE0700844CA079623002100F02BB995
:1006E00096230022114600F026B90EB5C10F80EA0C
:1006F000E0700844CA07002140F233438DE80E0041
:100700000A460B4600F054F903B000BD0EB540F2A6
:10071000334102910021CDE900110A460B4600F059
:1007200047F903B000BD00F0004220F00040C10DC9
:10073000C0F3160040F400007F2901DA0020704762
:10074000962903DCC1F19601C84001E09639884042
:10075000002AF4D04042704770B5C1F30A5201F04C
:1007600000450024C1F3130140F2FF3341F480112E
:100770009A4201DA002070BD40F233439A42A2F25D
:10078000334203DC5242FFF719FD00E090402C4356
:10079000F1D0404270BDC1F30A5210B5C1F313014C
:1007A00040F2FF3341F480119A4201DA002010BD7B
:1007B00040F233439A42A2F2334203DC5242FFF743
:1007C000FDFC10BD904010BD00F0004230F0004034
:1007D0000AD0C10D01F56071C0F3160042EA015163
:1007E000C2084007114370470020014670470000CF
:1007F00030B5041E71F1000404DB4FF000444042A8
:1008000064EB0101141E73F1000405DB1C464FF07C
:100810000043524263EB04038B4208BF824230BD67
:1008200001F0004330B421F0004150EA010206D04B
:100830000A0DA2F56072C1F31301002A02DC30BC7C
:1008400000207047440F44EAC104C100E01830BCE6
:1008500000EBC25000F066B8002801DBC0F1004098
:10086000002901DBC1F1004181427047002801DB12
:10087000C0F10040002901DBC1F10041884270470E
:100880002DE9F05F0546002092469B4688460646C5
:10089000814640241BE02846414647462246FFF752
:1008A0008DFC53465A46C01A914110D31146184642
:1008B000224600F016F82D1A67EB01084F46224633
:1008C0000120002100F00DF817EB00094E41201E19
:1008D000A4F10104DFDC484631462A464346BDE820
:1008E000F09F202A04DB203A00FA02F10020704732
:1008F0009140C2F1200320FA03F31943904070475E
:10090000202A06DBCB17203A41FA02F043EAE073D3
:1009100006E041FA02F3D040C2F1200291400843C0
:10092000194670470029A8BF7047401C490008BFFE
:1009300020F00100704710B4B0FA80FC00FA0CF00F
:1009400050EA010404BF10BC704749B1CCF1200447
:1009500021FA04F411FA0CF118BF012121430843D4
:10096000A3EB0C01CB1D4FEA00614FEA102042BF00
:10097000002010BC704700EBC35010440029A4BFF6
:1009800010BC7047401C490008BF20F0010010BC9B
:10099000704710B5141E73F1000408DA401C41F1D1
:1009A000000192185B411A4301D120F0010010BDF3
:1009B0002DE9F04D92469B4611B1B1FA81F202E069
:1009C000B0FA80F220329046FFF78BFF04460F46C4
:1009D00040EA0A0041EA0B0153465A46084313D045
:1009E000114653EA010019D0C8F140025046FFF702
:1009F000E5FB05460E46504659464246FFF771FF55
:100A0000084305D0012004E020463946BDE8F08DBA
:100A10000020054346EAE0762C4337430A986305F5
:100A2000E40AA0EB08000022FD0A44EA47540A3019
:100A300002D500200146E9E7010510196941DDE909
:100A4000084500196941BDE8F04DA2E770B521F0F5
:100A5000004303430CD0C1F30A550024D5EB040531
:100A600064EB0403D617AD1AB34102DB0020014644
:100A700070BD201841EB025170BD0000064C074DBF
:100A800006E0E06840F0010394E80700984710345E
:100A9000AC42F6D3FFF72EFBA8780008C878000810
:100AA000420005D0C0F3C7525242914201DC0020FF
:100AB000704700EBC15070472DE9F04D00231A46F6
:100AC0001B1A8A4103DB00200146BDE8F08DC1F30B
:100AD0000A52C1F3130141F480154FF0000BD10706
:100AE00002D100186D41521E0027044640F2FF114A
:100AF000384601EB620A3E468046024600204FF42B
:100B00008011FFF75BFBC2197141BB1846EB010076
:100B1000B4EB030C75EB000C04D3E41A65EB000591
:100B200017460E46241908F101006D41804634280D
:100B3000E3DDF91946EB0600091BA84103D24FF08B
:100B4000FF32134601E0002213461BEB070046EB81
:100B50000A51BDE8F04DFFF71CBF70B58C1810F8B6
:100B6000015B15F0070301D110F8013B2A1106D1F2
:100B700010F8012B03E010F8016B01F8016B5B1E0C
:100B8000F9D12B0705D40023521E0DD401F8013BE7
:100B9000FAE710F8013BCB1A921C03E013F8015B53
:100BA00001F8015B521EF9D5A142D8D3002070BDD7
:100BB00000B587B0F748007830B101280ED0022880
:100BC0007ED003287DD1AEE10020F349C880F349EF
:100BD000C880F349C880F349C880F2E1F248006A4E
:100BE0000190FFF7A0FD00B26FF063026421029054
:100BF00000F0BAFD0390FFF76AFD0590EB48B0F9ED
:100C000000000190FFF763FD0290E948006A014689
:100C100001900298FFF70BFB0390E648006A01463B
:100C200002900398FFF755FB04900599FFF7FFFA30
:100C30000690FFF778FD00B2D749C880DA48006A0D
:100C40000190FFF770FD00B26FF063026421029023
:100C500000F08AFD0390FFF73AFD0590D348B0F904
:100C600000000190FFF733FD0290D148006A014671
:100C700001900298FFF7DBFA0390CE48006A014624
:100C800002900398FFF7D3FA04900599FFF721FB30
:100C90000690FFF748FD00B2C049C880C248006A0C
:100CA0000190FFF740FD00B26FF0630264210290F3
:100CB00000F05AFD0390FFF70AFD0590BB4801E0E4
:100CC00050E07DE1B0F900000190FFF700FD0290D7
:100CD000B748006A014601900298FFF7FAFA0390BC
:100CE000B448006A014602900398FFF7F2FA0490B4
:100CF0000599FFF7EEFA0690FFF715FD00B2A84937
:100D0000C880A948006A0190FFF70DFD00B26FF09E
:100D100063026421029000F027FD0390FFF7D7FCE7
:100D20000590A248B0F900000190FFF7D0FC0290B6
:100D30009F48006A014601900298FFF7CAFA0390A3
:100D40009C48006A014602900398FFF770FA0490ED
:100D50000599FFF76CFA0690FFF7E5FC00B29149A0
:100D6000C8802EE19048006A0090FFF7DCFC00B2DA
:100D70006FF063026421019000F0F6FC0290FFF72F
:100D8000A6FC04908948B0F900000090FFF79FFC92
:100D900001908748006A014600900198FFF747FAE2
:100DA00002908448006A014601900298FFF791FA88
:100DB00003900499FFF73BFA05907F48006A0146CB
:100DC00004900598FFF733FA0690FFF7ACFC00B2E9
:100DD0007149C8807448006A0090FFF7A4FC00B213
:100DE0006FF063026421019000F0BEFC0290FFF7F7
:100DF0006EFC04906D48B0F900000090FFF767FCAE
:100E000001906B48006A014600900198FFF70FFAC5
:100E100002906848006A014601900298FFF707FABD
:100E200003900499FFF755FA05906348006A01465C
:100E300004900598FFF7FBF90690FFF774FC00B2E9
:100E40005649C8805848006A0090FFF76CFC00B211
:100E50006FF063026421019000F086FC0290FFF7BE
:100E600036FC04905148B0F900000090FFF72FFCC9
:100E700001904F48006A014600900198FFF729FA57
:100E800002904C48006A014601900298FFF721FA4F
:100E900003900499FFF71DFA05904748006A014640
:100EA00004900598FFF7C3F90690FFF73CFC00B2E9
:100EB0003B49C8803C48006A0090FFF734FC00B210
:100EC0006FF063026421019000F04EFC0290FFF786
:100ED000FEFB04903548B0F900000090FFF7F7FBE7
:100EE00001903348006A014600900198FFF7F1F93C
:100EF00002903048006A014601900298FFF797F986
:100F000003900499FFF793F905902B48006A014676
:100F100004900598FFF78BF90690FFF704FC00B2E8
:100F20002049C8804DE01C48C088C01E00B21A4944
:100F3000C8801A48C088C01E00B21849C880184826
:100F4000C088C01E00B21649C8801648C088C01E9E
:100F500000B21449C8801048B0F90600002817DC18
:100F60000E48B0F90600002812DC0D48B0F9060062
:100F700000280DDC0846B0F90600002808DC002037
:100F800002230246014600900C48006806F0E0F992
:100F900017E0000001010020440100204C01002066
:100FA000540100205C0100201802002002010020F2
:100FB00088010020D00100203C0200201C010020FC
:100FC00000BF00BF1C48B0F9060000224FF42F718B
:100FD000069000F0C9FB1849C8801848B0F906000F
:100FE00000224FF42F71069000F0BEFB1349C88019
:100FF0001348B0F9060000224FF42F71069000F05C
:10100000B3FB0F49C8800F48B0F9060000224FF427
:101010002F71069000F0A8FB0A49C880064803F02B
:1010200015FE064803F012FE054803F00FFE0548C2
:1010300003F00CFE07B000BD440100204C0100206D
:10104000540100205C01002010B508480088FFF71B
:1010500047FB0749086103F027FD0446FFF740FB03
:1010600003494861084600F00BFB10BD0C0100204D
:101070003C0200202DE9F041324803F0A5FA324A43
:10108000B2F900102F4AB2F9000000F0CFFB2D4951
:1010900008802D4AB2F902102A4AB2F9020000F083
:1010A000C5FB28494880284AB2F90410254AB2F9FC
:1010B000040000F0BBFB23498880084600882249D1
:1010C00008802048408848801E48808888801D49C4
:1010D000B1F90600FFF709FB064632460B461B48EE
:1010E00000F04DFB0446FFF737FB00B21549C880FE
:1010F000B1F90800FFF7F9FA064632460B461348E5
:10110000183000F03CFB0446FFF726FB01B20D4807
:1011100001810146B1F90A00FFF7E7FA06463246B7
:101120000B460A48303000F02AFB0446FFF714FB58
:1011300001B204484181064A064900F09FFBBDE820
:10114000F0810000DC490020380100201000002060
:10115000A69BC43BE849002010B503F085FA074878
:1011600003F0D2FD064803F0CFFD064803F0CCFDA6
:10117000054803F0C9FD03F0A5FC10BD44010020A3
:101180004C010020540100205C0100202DE9F047B3
:101190004149B1F90610A1F5FA70FFF7A6FA064623
:1011A00000223E4BFFF724FA0446FFF739FB3C4987
:1011B00008613C48806848613B49B1F90200FFF78B
:1011C00094FA80460022394BFFF7A0F90646002228
:1011D000374BFFF70DFA0446FFF722FB354948610C
:1011E0002F4800F0B5FA2C49B1F90410A1F5FA70B6
:1011F000FFF77BFA06460022284BFFF7F9F9044671
:10120000FFF70EFB2C4908612648406848612649D3
:10121000B1F90000FFF769FA80460022234BFFF77F
:1012200075F906460022224BFFF7E2F90446FFF764
:10123000F7FA22494861204800F08AFA1649B1F9C4
:101240000210A1F5FA70FFF750FA06460022134B80
:10125000FFF7CEF90446FFF7E3FA19490861114890
:10126000006848611049B1F90400FFF73EFA0646EC
:1012700000220E4BFFF74AF9044600220C4BFFF701
:10128000B7F98046FFF7CCFA0E4948610C4800F0E8
:101290005FFABDE8F087000002010020000049402D
:1012A00064010020E8490020DC49002000409F4004
:1012B0000000E04088010020AC010020D0010020A7
:1012C000F4010020180200201CB515480421002359
:1012D0008022CDE9001013A1154805F0CBFF154879
:1012E000032100238022CDE9001013A1154805F049
:1012F000C1FF1548012100238022CDE9001013A170
:10130000154805F0B7FF1548042100238022CDE9D8
:10131000001013A1154805F0ADFF05F009FF1CBD35
:1013200010010020504F5745525F7461736B0000ED
:10133000B552000814010020464C494748545F74D8
:1013400061736B00F91F0008180100204C45445FD1
:101350007461736B000000004D4D00081C010020FB
:10136000434F4D5F7461736B000000003D16000831
:1013700028B900210B4A11700B4A117010E00128A6
:101380000ED109490978491C074A1170114609789C
:10139000052905D10121034A11700021024A11706B
:1013A00070470000000100202C01002010B53148DA
:1013B000007830B101280ED002283CD0032855D146
:1013C0004AE000F065F828B901202A490870002099
:1013D000294908704BE02948407A012809D10220A8
:1013E0002449087000202549487203F05DFB244918
:1013F000088024480078012819D12348007838B99A
:1014000006F05CF82149086001201F49087011E0CE
:1014100006F054F81D490968401AB0F5FA7F09D959
:1014200003201449087000201749087002E00020CA
:10143000154908701BE01148407A012804D10D4974
:10144000087000200D4948720E480078012802D12A
:101450000320084908700AE04FF0FF320121002004
:1014600005F076FD00200349087000E000BF00BFD2
:1014700010BD000001010020200100200201002019
:101480000C01002000010020340100203001002068
:1014900010B52D48007805284BD2DFE800F0031185
:1014A000273449002948B0F90000B0F5617F06DD16
:1014B00001202549087006F001F82549086039E047
:1014C0002248B0F90000B0F5617F0EDA05F0F6FFB2
:1014D0001F490968401AB0F57A7F03D902201A49DA
:1014E000087002E000201849087023E01748B0F99E
:1014F0000000642806DC03201349087005F0DEFFB5
:101500001449086016E005F0D9FF12490968401A2D
:10151000B0F57A7F08D80D48B0F90000642806DDE0
:1015200000200949087002E004200749087001E022
:1015300000E000BF00BF04480078042801D100206B
:1015400010BD0120FCE70000200100200201002066
:10155000240100202801002070B512213448FEF734
:1015600044FE334803F04CFA3148FEF749FE08B90F
:10157000012070BD2E4800783C2803D12C484078CB
:101580003C2801D00120F4E72948007C3E2803D103
:101590002748407C3E2801D00120EAE700240025AE
:1015A000002004E02249095C0C44411CC8B20C280C
:1015B000F8DB1F48007B00061D49497B40EA0140DB
:1015C0001B49897B40EA01201949C97B40EA010592
:1015D000AC4201D00120CCE71548C0781449897885
:1015E00040EA012000B213490880114840791049AF
:1015F000097940EA012000B20E4948800C48C079C0
:101600000B49897940EA012000B20A49C88008489C
:10161000407A0749097A40EA012000B205498880EA
:101620000348807A08720248C07A48720020A0E716
:10163000C84900200201002000BFFEE708B505F000
:101640003DFF18E0FFF788FF04462046FFF790FEB5
:101650000948007A012808D10020022302460146E9
:1016600000900648006805F073FEFFF79FFE0A2011
:1016700005F044FD00BFE5E7020100201001002055
:101680002DE9F04F89B08246DAE90410FEF721FE19
:10169000CAF80C00DAF80C10DAF81C00FEF7C7FDE7
:1016A000CAF81C000021DAF81800FFF7D5F803D1BA
:1016B000DAF80C00CAF81800DAF81810DAF80C009A
:1016C000FEF707FE83465946DAF80800FEF707FEE4
:1016D0000646FFF779F804461B4A1C4BFEF788FFC5
:1016E000CDE90401DAF81C10DAF80400FEF7F7FD82
:1016F0000190FFF769F88046134A144BFEF706FF86
:1017000004460D46DAF80C10DAF80000FEF7E7FDA3
:101710008046FFF759F8064622462B46FEF74FFE55
:10172000CDE90201DDE90423FEF749FECDE906011A
:10173000FFF776F8CAF82000DAF80C00CAF81800AB
:1017400009B0BDE8F08F0000FA7E6ABC7493783F60
:1017500070B505460C462846FFF792FF286A2061BF
:101760002046FFF78DFF70BD03468B4201DD084622
:101770007047934201DA1046FAE71846F8E72DE978
:10178000F04788B0824614461D46DAF81010DAF8A1
:101790000000FEF74CFDCAF80400DAF81410DAF87D
:1017A0000400FEF744FD06463146DAF80400FEF771
:1017B000C8FDCAF80C00DAF80800FFF705F8224661
:1017C0002B46CDE90001FEF79EFECDE90201DAF8D5
:1017D0000C00FEF7F9FF0646DDE90223FEF796FE50
:1017E00080468946DAF80800FEF7EEFF42464B468F
:1017F000CDE90401FEF7E3FDCDE90601FFF710F89E
:10180000CAF808004FF07E50DAF80C10FEF761FDC0
:101810000646DAF80410FEF762FDCAF80000DAF8AE
:101820000800FEF7D1FF08B0BDE8F0872DE9FC5FA6
:1018300083460C462046FEF758FF07464FF03332EA
:101840000C4BFEF763FE81468A465846FEF74DFF75
:1018500007464FF03332084BFEF758FE4A465346D0
:10186000CDE90001FEF7ABFD0546FEF775FF00B2BE
:10187000BDE8FC9F3333EB3F3333C33F07B5A0B024
:101880004FF07C512298FEF72AFD0E90FE488068AA
:101890000690FD48006805900699FEF720FD089027
:1018A000F948C0680690F848406805900699FEF728
:1018B00016FD07900899FEF70CFD4FF08041099046
:1018C000FEF70DFD1D90F048C0680690EE48806858
:1018D00005900699FEF703FD0890EB4840680690D6
:1018E000E948006805900699FEF7F9FC0790089909
:1018F000FEF79DFC4FF080410990FEF7F0FC1E9032
:10190000E14880680590E048806804900599FEF7FA
:10191000E6FC0790DC4840680590DB48406804908E
:101920000599FEF7DCFC06900799FEF780FC4FF066
:1019300080410890FEF7D3FC4FF07E510990FEF7EE
:10194000CBFC1F902098B0F90A000490FEF7BFFE70
:1019500006902098B0F90A000490FEF7B8FE0590B2
:101960000699FEF7BCFC08902098B0F90800029098
:10197000FEF7ADFE04902098B0F908000290FEF743
:10198000A6FE03900499FEF7AAFC06902098B0F9F1
:1019900006000290FEF79BFE04902098B0F9060026
:1019A0000290FEF794FE03900499FEF798FC0590D0
:1019B0000699FEF73CFC07900899FEF738FC099061
:1019C00003F092FC0F902098B0F906000890FEF703
:1019D0007EFE09900F99FEF782FC1A902098B0F9CC
:1019E00008000890FEF773FE09900F99FEF777FC48
:1019F0001B902098B0F90A000890FEF768FE099045
:101A00000F99FEF76CFC1C901E9807901C9806908E
:101A10000799FEF764FC09901F9807901B980690A1
:101A20000799FEF75CFC08900999FEF752FC1490A8
:101A30001F9807901A9806900799FEF750FC099096
:101A40001D9807901C9806900799FEF748FC08908F
:101A50000999FEF73EFC15901D9807901B9806907B
:101A60000799FEF73CFC09901E9807901A9806907B
:101A70000799FEF734FC08900999FEF72AFC1690A6
:101A800014980890814801680898FEF728FC09908E
:101A90007F480068014608900998FEF7C8FB7C491A
:101AA000086015980890794801680898FEF717FCB7
:101AB000099077484068014608900998FEF7B7FBFF
:101AC0007349486016980890704801680898FEF7B6
:101AD00006FC09906E488068014608900998FEF758
:101AE000A6FB6B4988601498014606906948006817
:101AF000FEF7F5FB08902098B0F900000590FEF77E
:101B0000E6FD0690644801680698FEF7E8FB07903A
:101B10000899FEF78CFB09905D4800680146089023
:101B20000998FEF784FB17901598014606905948CE
:101B30000068FEF7D4FB08902098B0F902000590E9
:101B4000FEF7C5FD0690544801680698FEF7C7FBEE
:101B500007900899FEF76BFB09904D4840680146D5
:101B600008900998FEF763FB1890169801460690B6
:101B700048480068FEF7B3FB08902098B0F90400CD
:101B80000590FEF7A4FD0690434801680698FEF70D
:101B9000A6FB07900899FEF74AFB09903C4880682D
:101BA000014608900998FEF742FB19901998069093
:101BB0003548C06805900699FEF791FB0890189883
:101BC00004903148806803900499FEF788FB0690E2
:101BD0002D48406880F0004004901798014603901B
:101BE0000498FEF77CFB05900699FEF772FB0790C0
:101BF0000899FEF76EFB09900E99FEF770FB1390A3
:101C0000199806902048806805900699FEF767FBB2
:101C10000890189804901C48C06803900499FEF737
:101C20005EFB06901798049017480068039004998B
:101C3000FEF755FB05900699FEF74BFB07900899B8
:101C4000FEF7F5FA09900E99FEF749FB12901998E4
:101C500006900D48406805900699FEF740FB0890F5
:101C6000189804900848006803900499FEF737FB21
:101C70000690179804900448C06803900499FEF7F2
:101C80002EFB0590069909E0700000206C000020F2
:101C9000F40400206800002060000020FEF7C7FA6E
:101CA00007900899FEF715FB09900E99FEF717FBB0
:101CB000119019980690C948006805900699FEF79A
:101CC0000EFB089018980490C4484068039004994B
:101CD000FEF705FB0690C148806880F00040049044
:101CE0001798014603900498FEF7F9FA05900699B3
:101CF000FEF79DFA07900899FEF799FA09900E9958
:101D0000FEF7EDFA1090B548006809901399FEF7B8
:101D10008EFAB24908600846406809901299FEF7A9
:101D200086FAAE4948600846806809901199FEF726
:101D30007EFAAA4988600846C06809901099FEF7A3
:101D400076FAA649C8600846C06806900846C0688A
:101D500005900699FEF7C3FA0890A04880680490A1
:101D60009E48806803900499FEF7B9FA06909B4854
:101D7000406802909948406801900299FEF7AFFAD6
:101D80000490964800680290944800680190029977
:101D9000FEF7A5FA03900499FEF749FA0590069913
:101DA000FEF745FA07900899FEF741FA099003F00B
:101DB0009BFA0F908948006809900F99FEF78FFAF7
:101DC000864908600846406809900F99FEF787FA2F
:101DD000824948600846806809900F99FEF77FFAAB
:101DE0007E4988600846C06809900F99FEF777FA27
:101DF0007A49C86008464068014606904FF0804026
:101E0000FEF76DFA07907548C0680146069007987E
:101E1000FEF765FA099071480068014606904FF098
:101E20008040FEF75CFA07906C4880680146069097
:101E30000798FEF754FA08900999FEF74AFA0D90B0
:101E400066480068014606904FF08040FEF747FA6A
:101E5000079062484068014606900798FEF73FFAEF
:101E600009905E488068014606904FF08040FEF77A
:101E700036FA07905948C068014606900798FEF761
:101E80002EFA08900999FEF7D2F90C905348806811
:101E9000014606904FF08040FEF721FA07904F4828
:101EA0008068014606900798FEF719FA09904B489A
:101EB0004068014605904FF08040FEF710FA06900A
:101EC00046484068014605900698FEF708FA4FF02C
:101ED0007E510790FEF700FA08900999FEF7F9F98C
:101EE0000B902098B0F904000890FEF7F0FB0990E1
:101EF0003B4801680998FEF7F2F90A904FF07C51CF
:101F00000A98FEF7B3FC09D30A98FEF75DFC00229D
:101F1000344BCDE90801FEF76BFC0DD222990A98EB
:101F2000FEF7DDF9099021980068014608900998AC
:101F3000FEF77DF9219908602B480068FEF744FC04
:101F4000CDE906010D98FEF73FFCCDE9020104F052
:101F500087FACDE90401DDE90623FEF7D7FACDE9DA
:101F60000801FEF75DFC21998860DDE90B1004F0A3
:101F7000AFFB09901C4801680998FEF7B0F9219958
:101F800048602098B0F90A000690FEF7A0FB079081
:101F90000B99FEF7A4F909902098B0F90800049075
:101FA000FEF795FB05900C99FEF799F9079020989C
:101FB000B0F906000490FEF78AFB05900D99FEF734
:101FC0008EF906900799FEF732F908900999FEF705
:101FD0002EF90649086023B000BD00007000002003
:101FE0005C0000200000E0BF5800002064000020DA
:101FF000704772B600BFFEE708B505F05FFA0090C3
:102000000024FFF7A9F816E0FFF734F8FFF7BEF851
:1020100009480078022806D1601CC4B2042C02DBF7
:10202000FFF712F80024FEF7C3FD00BF0621684643
:1020300005F054F900BFE7E70101002070B5044640
:1020400000F0B0F906462546681C10B10448007837
:10205000054400BF00F0A6F9801BA842FAD370BD6A
:10206000080000202DE9F8470346002294466EE15F
:102070004FF0010808FA02F4D1F8008008EA0400E1
:10208000A0427DD1DFF8DCA2D1F80480A8EB0A09D8
:10209000D0453AD014DCB8F1030F50D009DCB8F1C8
:1020A000000F31D0B8F1010F1CD0B8F1020F49D1A7
:1020B00020E0B8F1110F18D0B8F1120F42D11EE094
:1020C000B9F5881F25D006DCB9F5803F20D0B9F5D9
:1020D000801F37D11AE0B9F5001F18D0B9F5041FD9
:1020E00030D117E0D1F80CC02DE0D1F80C8008F108
:1020F000040C28E0D1F80C8008F1080C23E0D1F89A
:102100000C8008F10C0C1EE000BF00BF00BF00BF38
:1021100000BF00BFD1F80880B8F1000F02D14FF026
:10212000040C0BE0D1F80880B8F1010F03D14FF097
:10213000080C1C6102E04FF0080C5C6103E04FF0FA
:10214000000C00E000BF00BFFF2801D8984601E066
:1021500003F104084646FF2802D84FEA820803E04C
:10216000A2F108084FEA88084746D6F800804FF0E9
:102170000F0909FA07F928EA09080CFA07F900E03B
:1021800088E048EA0908C6F80080D1F8048008F021
:102190008058B8F1805F7DD100BFDFF8CC81D8F8DE
:1021A000188048F00108DFF8C091C9F81880C846C7
:1021B000D8F8188008F00108CDF8008000BF00BFF3
:1021C0004FEAB9384FEA920958F829504FEA827815
:1021D0004FEA18794FF00F0808FA09F825EA0805C0
:1021E000DFF88881434502D14FF0000816E0DFF8A0
:1021F0008081434502D14FF001080FE0DFF8748180
:10220000434502D14FF0020808E0DFF86C814345F6
:1022100002D14FF0030801E04FF004084FEA827941
:102220004FEA197908FA09F848EA0505DFF84C8100
:102230004FEA920948F82950D1F8048008F4801830
:10224000B8F5801F0AD1DFF83881D8F8008048EA55
:102250000008DFF82C91C9F8008009E0DFF8208140
:10226000D8F8008028EA0008DFF81491C9F8008047
:10227000D1F8048008F40018B8F5001F10D1DFF879
:10228000008108F10408D8F8008048EA0008DFF867
:10229000F09000E05AE009F10409C9F800800DE06F
:1022A000DFF8DC8008F10408D8F8008028EA00088C
:1022B000DFF8CC9009F10409C9F80080D1F8048056
:1022C00008F40038B8F5003F0ED1DFF8B480A8F16B
:1022D0000408D8F8008048EA0008DFF8A490A9F1C3
:1022E0000409C9F800800DE0DFF89480A8F1040823
:1022F000D8F8008028EA0008DFF88490A9F10409E2
:10230000C9F80080D1F8048008F48038B8F5803F1F
:102310000ED1DFF86C80A8F10808D8F8008048EAF0
:102320000008DFF85C90A9F10809C9F800800DE009
:10233000DFF84C80A8F10808D8F8008028EA0008E7
:10234000DFF83C90A9F10809C9F80080521CD1F8C7
:10235000008028FA02F8B8F1000F7FF489AEBDE8DA
:10236000F887000000001110001002400008014032
:10237000000C014000100140001401400800014021
:102380000804014010B5C26821EA020302EA010410
:1023900043EA0443036110BD0AB1016101E00B048B
:1023A000036170470148006870470000000000208A
:1023B00070B504460CB9012070BD94F83D0028B9F1
:1023C000002084F83C00204600F046FB242084F8DE
:1023D0003D002068006820F0010021680860206846
:1023E000006840F40040216808602068006820F41C
:1023F00000402168086000F025FD05465C496068E2
:10240000884206D85B48854201D2012007E00020BF
:1024100005E05948854201D2012000E00020012852
:1024200000D1C9E75548B5FBF0F62068406820F0B8
:102430003F003043216848604D496068884201D8B8
:10244000701C07E04FF4967070434FF47A71B0FB44
:10245000F1F0401C2168096A21F03F01084321681E
:10246000086243496068884214D8681E6168490060
:10247000B0FBF1F0401CC0F30B00042801D2042093
:102480003DE0681E61684900B0FBF1F0401CC0F3FC
:102490000B0034E0A06838B9681E616801EB4101A7
:1024A000B0FBF1F0401C0AE0681E616801EBC1025C
:1024B00002EB0111B0FBF1F0401C40F48040C0F38E
:1024C0000B0008B901201AE0A06848B9681E6168CD
:1024D00001EB4101B0FBF1F0401CC0F30B000CE03C
:1024E000681E616801EBC10202EB0111B0FBF1F063
:1024F000401CC0F30B0040F4804040F400402168D1
:10250000C9694CF6FF72914308432168C861D4E958
:10251000070108432168096821F0C00108432168C8
:102520000860D4E9031008432168896848F2FF3243
:102530009143084321688860D4E905010843216874
:10254000C96821F0FF0108432168C860206800685D
:1025500040F001002168086000202064202084F8F9
:102560003D000020206384F83E0000BF24E7000007
:10257000A086010080841E0000093D0040420F003B
:102580002DE9FE4F04460F4690469946DDE90CAB17
:102590000E9E00200290FFF705FF054694F83D00CF
:1025A000202872D119230122CE492046009501F03E
:1025B0003CFE10B10220BDE8FE8F00BF94F83C0045
:1025C000012801D10220F6E7012084F83C0000BF79
:1025D0002068006800F0010028B92068006840F019
:1025E0000100216808602068006820F4006021680C
:1025F0000860222084F83D00402084F83E0000203E
:102600002064C4F824A0A4F82AB0608D2085B648C0
:10261000E0624B46424639462046CDE9006501F06E
:10262000B1FC08B10120C6E7208D88B900BF0020A9
:10263000019020684069019020688069019000BF86
:1026400000BF2068006840F40070216808604BE01B
:10265000208D01281AD12068006820F4806021684C
:10266000086072B600BF00200190206840690190A8
:1026700020688069019000BF00BF2068006840F4B6
:1026800000702168086062B62EE029E1208D0228E2
:1026900019D12068006840F400602168086072B6B3
:1026A00000BF002001902068406901902068806987
:1026B000019000BF00BF2068006820F4806021689E
:1026C000086062B610E02068006840F4806021680D
:1026D000086000BF002001902068406901902068D8
:1026E0008069019000BF00BFEBE0208D03287DD8FA
:1026F000208D012815D12A463146204601F071FE71
:1027000008B1012057E720680069616A0870606AB3
:10271000401C6062208D401E2085608D401E6085BB
:10272000CFE0208D02282CD1334600226F4920466D
:10273000009501F07AFD08B101203CE772B62068EF
:10274000006840F400702168086020680069616AD0
:102750000870606A401C6062208D401E2085608D7C
:10276000401E608562B620680069616A0870606A10
:10277000401C6062208D401E2085608D401E60855B
:102780009FE03346002259492046009501F04DFD57
:1027900008B101200FE72068006820F480602168FC
:1027A000086072B620680069616A0870606A401C3F
:1027B0006062208D401E2085608D401E60854C48E3
:1027C00000681921B0FBF1F04FF47A71B0FBF1F021
:1027D000C0EBC00000EB8000029000BF0298401EDA
:1027E00002900298A8B90020206300E039E0202080
:1027F00084F83D00002084F83E00206C40F020006A
:10280000206462B600BF002084F83C0000BF0120B5
:10281000D1E620684069C0F380000028DED020683F
:10282000006840F400702168086020680069616AEF
:102830000870606A401C6062208D401E2085608D9B
:10284000401E608562B620680069616A0870606A2F
:10285000401C6062208D401E2085608D401E60857A
:102860002FE02A463146204601F0BBFD08B1012089
:10287000A1E620680069616A0870606A401C6062B5
:10288000208D401E2085608D401E60852068406937
:10289000C0F38000A8B1208D032805D1206800680E
:1028A00020F480602168086020680069616A08700F
:1028B000606A401C6062208D401E2085608D401E35
:1028C0006085208D00287FF410AF202084F83D0023
:1028D000002084F83E0000BF84F83C0000BF6AE698
:1028E000022068E6020010000000FFFF0400010063
:1028F0000C0000202DE9FC5F04460F4690469946E7
:10290000DDE90CAB0E9EFFF74DFD054694F83D004A
:1029100020287DD1192301224D492046009501F040
:1029200084FC10B10220BDE8FC9F00BF94F83C007D
:10293000012801D10220F6E7012084F83C0000BF05
:102940002068006800F0010028B92068006840F0A5
:102950000100216808602068006820F40060216898
:102960000860212084F83D00402084F83E000020CB
:102970002064C4F824A0A4F82AB0608D20853548CE
:10298000E0624B46424639462046CDE9006501F0FB
:10299000A9FB08B10120C6E731E02A4631462046AE
:1029A00001F064FD50B1206C042805D12068006856
:1029B00040F40070216808600120B4E7606A007884
:1029C00021680861606A401C6062208D401E20857D
:1029D000608D401E608520684069C0F3800070B142
:1029E000208D60B1606A007821680861606A401CCF
:1029F0006062208D401E2085608D401E6085208D88
:102A00000028CAD12A463146204601F0DBFB00E00F
:102A10001CE050B1206C042805D12068006840F407
:102A200000702168086001207DE72068006840F49C
:102A3000007021680860202084F83D00002084F8A0
:102A40003E0000BF84F83C0000BF6CE702206AE74C
:102A5000020010000000FFFF10B586B00446002001
:102A600002900390049005902B492068884225D15C
:102A700000BF2A48806940F008002849886108465C
:102A8000806900F00800019000BF00BFC0200290E4
:102A9000122003900320059002A92148FFF7E2FAD3
:102AA00000BF1E48C06940F400101C49C8610846B8
:102AB000C06900F40010019000BF2AE019492068A5
:102AC000884226D100BF1548806940F008001349AC
:102AD00088610846806900F00800019000BF00BFCF
:102AE0004FF440600290122003900320059002A949
:102AF0000B48FFF7B7FA00BF0848C06940F48000F0
:102B00000649C8610846C06900F48000019000BF12
:102B100000BF06B010BD000000540040001002408D
:102B2000000C014000580040034800680349097840
:102B30000844014908607047000000200800002098
:102B400010B50848006840F01000064908600320EE
:102B500000F098F80F2000F007F800F02BF80020A4
:102B600010BD00000020024070B504460E480078F9
:102B70004FF47A71B1FBF0F00C490968B1FBF0F544
:102B8000284600F0AFFD08B1012070BD102C07D21F
:102B900000222146501E00F037F80548046001E08D
:102BA0000120F2E70020F0E7080000200C000020E0
:102BB0000400002008B500BF1148806940F0010002
:102BC0000F4988610846806900F00100009000BF4D
:102BD00000BF00BF0846C06940F08050C861084689
:102BE000C06900F08050009000BF00BF00BF0549E1
:102BF000486820F0E06040F00070486000BF08BD09
:102C000000100240000001402DE9F05F80460D46B3
:102C10001646002703F026FA074639462A46334669
:102C200001F00700C0F1070ABAF1040F02D94FF012
:102C3000040A01E0C0F1070AD14600F1040ABAF122
:102C4000070F02D24FF0000A01E0A0F1030AD446B8
:102C50004FF0010A0AFA09FAAAF1010A0AEA020A7D
:102C60000AFA0CFA4FF0010B0BFA0CFBABF1010B5B
:102C70000BEA030B4AEA0B042146404603F0FAF93B
:102C8000BDE8F09F00BF00F00702064B19684FF641
:102C9000FF031940044B0B4343EA0221014B196027
:102CA00000BF70470CED00E00000FA0570B5044667
:102CB0000D460CB9012070BD5A48006800F00700AD
:102CC000A8420ED25748006820F007002843554913
:102CD00008600846006800F00700A84201D0012003
:102CE000E9E7207800F0020002281DD1207800F0EA
:102CF0000400042805D14C48406840F4E0604A498B
:102D00004860207800F00800082805D1464840684F
:102D100040F46050444948604348406820F0F00067
:102D2000A168084340494860207800F0010078B36A
:102D30006068012806D13C48006800F4003090B972
:102D40000120B8E76068022806D13748006800F023
:102D5000007040B90120AEE73348006800F002007F
:102D600008B90120A7E73048406820F003006168F7
:102D700008432D494860FFF715FB064609E0FFF7B9
:102D800011FB801B41F28831884202D9032092E76F
:102D900007E02548406800F00C006168B0EB810F47
:102DA000EDD12048006800F00700A8420ED91D4868
:102DB000006820F0070028431A49086008460068A8
:102DC00000F00700A84201D0012074E7207800F04D
:102DD0000400042807D11448406820F4E060E1684A
:102DE000084311494860207800F00800082808D1FD
:102DF0000D48406820F46050216940EAC1000A494A
:102E0000486000F03FF808494968C1F30311074AD8
:102E1000515CC8400649086006480068FFF7A4FEF8
:102E2000002048E70020024000100240C67700085A
:102E30000C000020040000200148006870470000DA
:102E40000C00002000B5FFF7F7FF04494968C1F303
:102E50000221034A515CC84000BD0000001002403E
:102E6000D677000800B5FFF7E7FF04494968C1F3CA
:102E7000C221034A515CC84000BD0000001002405E
:102E8000D677000870B5002100220024002300201E
:102E9000134D696801F00C05F5B1042D02D0082D21
:102EA00019D101E00F4819E00F4DC1F38346AB5D26
:102EB00001F4803555B10A4D6D68C5F340450B4EA0
:102EC000725D084D5D43B5FBF2F402E0084D03FB73
:102ED00005F4204602E000BF024800BF00BF70BDFD
:102EE0000010024000127A00B4770008C47700088E
:102EF00000093D00F8B504460CB90120F8BD207862
:102F000000F00100002878D0F848406800F00C007C
:102F100004280CD0F548406800F00C00082811D1B6
:102F2000F248406800F48030B0F5803F0AD1EF48A5
:102F3000006800F4003000285FD0606800285CD191
:102F40000120DBE700BF6068B0F5803F06D1E748AD
:102F5000006840F48030E549086028E0606858B9AE
:102F6000E248006820F48030E049086008460068C4
:102F700020F4802008601AE06068B0F5A02F0BD123
:102F8000DA48006840F48020D849086008460068A4
:102F900040F4803008600AE0D448006820F48030B3
:102FA000D24908600846006820F48020086000BF0D
:102FB000606888B1FFF7F6F9054606E0FFF7F2F919
:102FC000401B642801D9032098E7C848006800F432
:102FD00000300028F2D010E0FFF7E4F9054606E0E3
:102FE000FFF7E0F9401B642801D9032086E7BF48BA
:102FF000006800F400300028F2D1207800F00200D0
:10300000022857D1B948406800F00C0050B1B748C9
:10301000406800F00C00082818D1B448406800F45B
:10302000803098B9B148006800F0020020B12069F2
:10303000012801D0012061E7AC48006820F0F800C9
:10304000616940EAC100A949086033E02069E8B13C
:103050000120A7490860FFF7A5F9054606E0FFF73C
:10306000A1F9401B022801D9032047E79F480068C7
:1030700000F002000028F2D09C48006820F0F80020
:10308000616940EAC1009949086013E0002098494D
:103090000860FFF787F9054606E0FFF783F9401B54
:1030A000022801D9032029E79048006800F00200B7
:1030B0000028F2D1207800F0080008282DD1A0695E
:1030C000B8B101208B490860FFF76CF9054606E0AE
:1030D000FFF768F9401B022801D903200EE7834857
:1030E000406A00F002000028F2D0012002F024F92A
:1030F00013E000207F490860FFF754F9054606E019
:10310000FFF750F9401B022801D90320F6E6774863
:10311000406A00F002000028F2D1207800F004009C
:10312000042873D100277148C06900F0805070B93D
:1031300000BF6E48C06940F080506C49C8610846C5
:10314000C06900F08050009000BF00BF01276A48AE
:10315000006800F48070B0B96748006840F480707F
:1031600065490860FFF71EF9054606E0FFF71AF902
:10317000401B642801D90320C0E65F48006800F4C2
:1031800080700028F2D000BFE068012806D15748BF
:10319000006A40F001005549086227E0E06858B92C
:1031A0005248006A20F00100504908620846006A4F
:1031B00020F00400086219E0E06805280BD14B48B4
:1031C000006A40F00400494908620846006A40F07D
:1031D000010008620AE04548006A20F00100434906
:1031E00008620846006A20F00400086200BFE06838
:1031F000A0B1FFF7D7F8054609E0FFF7D3F8401B69
:1032000041F28831884202D9032077E622E037482C
:10321000006A00F002000028EFD012E0FFF7C2F8C9
:10322000054608E0FFF7BEF8401B41F288318842AE
:1032300001D9032062E62D48006A00F00200002850
:10324000F0D1012F05D12948C06920F080502749CD
:10325000C86100BFE069C8B32448406800F00C00B2
:10326000082860D0E069022848D10020204908667B
:10327000FFF798F8054606E0FFF794F8401B022890
:1032800001D903203AE61948006800F000700028D0
:10329000F2D1206AB0F5803F07D11448406820F48D
:1032A0000030A168084311494860D4E90801084387
:1032B0000E49496821F4741108430C494860012003
:1032C0000B490866FFF76EF8054607E03DE0FFF79B
:1032D00069F8401B022801D903200FE60348006863
:1032E00000F000700028F2D02FE000000010024033
:1032F0000000424280044242007000400020144915
:103300000866FFF74FF8054606E0FFF74BF8401B4D
:10331000022801D90320F1E50E48006800F0007092
:103320000028F2D111E0E069012800D1E6E5094862
:10333000466806F48031206A814204D106F4701197
:10334000606A814201D00120D8E50020D6E5000066
:10335000000042420010024010B504460CB90120A2
:1033600010BD606A38B96068B0F5827F00D105E0B1
:103370000021E16102E00021216161610021A1627F
:1033800094F8510028B9002084F85000204600F03D
:1033900043F8022084F851002068006820F04000C3
:1033A00021680860A08800F48270218901F404413A
:1033B0000843A18901F400610843217C01F0020166
:1033C0000843217D01F001010843218B01F40071C4
:1033D0000843217F01F0380108432021095D01F0F5
:1033E00080010843218D01F40051084321680860E1
:1033F0000421A06901EA1040216848602068C06982
:1034000020F400602168C86100206065012084F814
:1034100051000020A4E7000010B586B0044600204B
:1034200002900390049005901949206888422DD19C
:1034300000BF1848806940F48050164988610846EA
:10344000806900F48050019000BF00BF00BF0846B3
:10345000806940F0040088610846806900F004003B
:10346000019000BF00BFA020029002200390032023
:10347000059002A90848FEF7F5FD402002900020C3
:103480000390049002A90448FEF7ECFD06B010BDBD
:103490000030014000100240000801402DE9FE4FBD
:1034A00004460F4690461D460C9E01200190FEF7F3
:1034B00079FF814694F851B060680290AA46BBF14A
:1034C000010F0BD00298B0F5827F04D1A06810B92B
:1034D000BBF1040F02D00220BDE8FE8F1FB1B8F18E
:1034E000000F00D00DB90120F6E700BF94F850009E
:1034F000012801D10220EFE7012084F8500000BF2D
:1035000094F85100042802D0052084F851000020CE
:103510006065C4F83880E587A5872763E586A586BA
:10352000206460642068006800F04000402805D0F6
:103530002068006840F0400021680860E068B0F54D
:10354000006F52D1606810B1BAF1010F09D1206B40
:1035500000882168C860206B801C2063E08E401EBC
:10356000E0863BE02068806800F00200022810D16D
:10357000E08E70B1019801280BD1206B0088216882
:10358000C860206B801C2063E08E401EE086002017
:1035900001902068806800F0010068B1E08F58B1A8
:1035A0002068C068A16B0880A06B801CA063E08FBE
:1035B000401EE08701200190FEF7F4FEA0EB090019
:1035C000B0420BD3701C48B1012084F8510000BFF9
:1035D000002084F8500000BF03207DE7E08E002823
:1035E000C0D1E08F0028BDD152E0606810B1BAF1BF
:1035F000010F09D1206B007821680873206B401CF3
:103600002063E08E401EE0863CE02068806800F089
:103610000200022810D1E08E70B1019801280BD170
:10362000206B007821680873206B401C2063E08EBB
:10363000401EE086002001902068806800F00100B4
:1036400068B1E08F58B12068C068A16B0870A06BAA
:10365000401CA063E08F401EE08701200190FEF730
:10366000A1FEA0EB0900B04201D3701C00B94EB915
:10367000012084F8510000BF002084F8500000BFF2
:10368000032029E7E08E0028BFD1E08F0028BCD1BD
:103690004A463146204601F063FE40B12020606575
:1036A00000BF002084F8500000BF012014E7A0688C
:1036B00050B900BF002000902068C06800902068CA
:1036C0008068009000BF00BF012084F8510000BF57
:1036D000002084F8500000BF606D08B10120FBE6B7
:1036E0000020F9E670B504462546681EB0F1807FDB
:1036F00001D301200FE0681E4FF0E02148610F2147
:103700004FF0FF3002F0B6FC00204FF0E02188615E
:1037100007200861002070BD10B50346002200BFDD
:1037200093F83C00012801D1022010BD012083F84C
:103730003C0000BF22F0FF00CC6840EA040222F403
:1037400040708C6840EA040222F480604C6840EAD1
:10375000040222F400600C6840EA040222F4805063
:103760000C6940EA040222F400504C6940EA040269
:1037700022F48040CC6940EA04021868426400BF29
:10378000002083F83C0000BF00BFCEE730B5024602
:103790000B4600BF92F83C00012801D1022030BD49
:1037A000012082F83C0000BF022082F83D00106832
:1037B00044681068816824F0700418680443106835
:1037C0004460104D1068A8420BD01068B0F1804FD3
:1037D00007D00D4D1068A84203D00C4D1068A842C8
:1037E00005D121F0800158680143106881600120F3
:1037F00082F83D0000BF002082F83C0000BF00BFFF
:10380000CDE70000002C014000040040000800400B
:1038100010B504460CB9012010BD94F83D0028B93C
:10382000002084F83C00204600F026F8022084F8AE
:103830003D00211D206801F071FE012084F8460042
:1038400000BF84F83E0001213F2001554020015572
:103850004120015500BF00BF012084F842004320F1
:103860000155442001554520015500BF012084F831
:103870003D000020D0E7000008B5244A01689142CD
:103880000DD100BF2249896941F40061204A91614C
:103890001146896901F40061009100BF35E00168BB
:1038A000B1F1804F0DD100BF1949C96941F0010143
:1038B000174AD1611146C96901F00101009100BFA9
:1038C00023E0144A016891420DD100BF1049C96933
:1038D00041F002010E4AD1611146C96901F00201AD
:1038E000009100BF11E00C4A016891420DD100BF68
:1038F0000749C96941F00401054AD1611146C96906
:1039000001F00401009100BF00BF08BD002C014080
:103910000010024000040040000800402DE9F04182
:1039200004460D46002700BF94F83C00012802D150
:103930000220BDE8F081012084F83C0000BF022095
:1039400084F83D002068866826F0770626F47F46D6
:10395000206886602868502833D00CDC202850D09E
:1039600004DC00284BD0102851D149E0302849D040
:1039700040284CD139E060282DD0702807D0B0F510
:10398000805F03D0B0F5005F41D10DE041E0D5E9A3
:1039900002136A68206801F014FE2068866846F009
:1039A00077062068866034E0D5E902136A682068EB
:1039B00001F007FE2068806840F48040216888603C
:1039C00027E0EA686968206801F0CCFE5021206891
:1039D00001F002FE1DE0EA686968206801F0D5FE8A
:1039E0006021206801F0F8FD13E0EA68696820684A
:1039F00001F0B8FE4021206801F0EEFD09E000BFB3
:103A000000BF00BF2968206801F0E6FD01E0012742
:103A100000BF00BF012084F83D0000BF002084F8F3
:103A20003C0000BF384684E710B586B0044600204D
:103A300002900390049005903C492068884217D179
:103A400000BF3B48806940F004003949886108465E
:103A5000806900F00400019000BF00BF08150290CB
:103A600002200390059002A93248FEF7FBFA5BE0C2
:103A70002068B0F1804F16D100BF2D48806940F01A
:103A800004002B4988610846806900F00400019019
:103A900000BF00BF022002900390059002A92548B4
:103AA000FEF7E0FA40E024492068884221D100BFB7
:103AB0001F48806940F008001D49886108468069F8
:103AC00000F00800019000BF00BF1020029002200B
:103AD0000390059002A91948FEF7C4FA00BF1849DF
:103AE000486820F4406040F0E06040F400604860C6
:103AF0001AE014492068884216D100BF0C4880693A
:103B000040F008000A4988610846806900F0080012
:103B1000019000BF00BF481502900220039005905D
:103B200002A90648FEF79EFA06B010BD002C01401F
:103B3000001002400008014000040040000C014059
:103B400000000140000800402DE9F04104460D4608
:103B50001646002700BF94F83C00012802D102203D
:103B6000BDE8F081012084F83C0000BF36B1042E8E
:103B70001BD0082E31D00C2E5ED145E0294620689E
:103B800001F034FD2068806940F0080021688861F8
:103B90002068806920F004002168886120688069BD
:103BA000296908432168886148E02946206801F0B6
:103BB0004DFD2068806940F40060216888612068BC
:103BC000806920F4806021688861206880692969A3
:103BD00040EA01202168886130E02946206801F030
:103BE00069FD2068C06940F008002168C86120684C
:103BF000C06920F004002168C8612068C069296993
:103C000008432168C86119E02946206801F086FD53
:103C10002068C06940F400602168C8612068C069FC
:103C200020F480602168C8612068C069296940EA81
:103C300001202168C86101E0012700BF00BF00BF6B
:103C4000002084F83C0000BF384689E710B50446E0
:103C50000CB9012010BD94F83D0028B9002084F86B
:103C60003C00204600F025F8022084F83D00211D8C
:103C7000206801F053FC012084F8460000BF84F85E
:103C80003E0001213F2001554020015541200155B2
:103C900000BF00BF012084F84200432001554420AA
:103CA00001554520015500BF012084F83D0000204A
:103CB000D0E7704770B504460D4615B994F83E003C
:103CC0000BE0042D02D13F20005D06E0082D02D15B
:103CD0004020005D01E04120005D012801D001206D
:103CE00070BD1DB9022084F83E000EE0042D03D102
:103CF00002213F20015508E0082D03D10221402078
:103D0000015502E002214120015501222946206887
:103D100001F046FC19492068884201D1012000E0E9
:103D2000002028B12068406C40F4004021684864BD
:103D30001249206888420BD02068B0F1804F07D02C
:103D40000F492068884203D00E49206888420CD170
:103D50002068806800F00706062E0CD020680068F6
:103D600040F001002168086005E02068006840F02C
:103D70000100216808600020B2E70000002C01402B
:103D8000000400400008004010B504460CB90120B2
:103D900010BDA06900B100E000BF94F8410028B94F
:103DA000002084F84000204600F02AF8242084F8FF
:103DB00041002068C06820F400502168C860204697
:103DC00001F02EFD2068006920F490402168086110
:103DD0002068406920F02A00216848612068C06896
:103DE00040F400502168C86000206064202084F8FE
:103DF000410084F842000020606300BFC8E7000073
:103E000010B586B0044600200290039004900590FF
:103E10001949206888422DD100BF1848C06940F474
:103E200000301649C8610846C06900F400300190AE
:103E300000BF00BF00BF0846806940F004008861F1
:103E40000846806900F00400019000BF00BF042014
:103E50000290022003900320059002A90848FEF773
:103E600001F90820029000200390049002A9044860
:103E7000FEF7F8F806B010BD004400400010024004
:103E8000000801402DE9F84F04460E4617469946B2
:103E90004FF0000A94F84100202850D106B117B91C
:103EA0000120BDE8F88F00206064212084F84100E3
:103EB000FEF778FA8246A784E784A068B0F5805FB1
:103EC00004D1206910B90025B04602E035464FF014
:103ED00000081EE05346002280212046CDF80090C5
:103EE00001F01CFD20B1202084F841000320D8E718
:103EF00045B9B8F80000C0F308002168486008F12F
:103F0000020803E02878216848606D1CE08C401EA0
:103F1000E084E08C0028DDD1534600224021204679
:103F2000CDF8009001F0FAFC20B1202084F8410087
:103F30000320B6E7202084F841000020B1E70220EA
:103F4000AFE700BFFEE7014608684069C0F3802084
:103F5000B0B16FF480600A685061002008632020CF
:103F600081F83D00002081F83E00086C40F004001C
:103F7000086400BF002081F83C0000BF01207047AA
:103F80000020FCE72DE9F84304460F461546994604
:103F9000DDE908862068006840F4806021680860D8
:103FA0002068006840F48070216808604346002261
:103FB0004FF001112046009600F037F960B12068FB
:103FC000006800F48070B0F5807F02D14FF400707B
:103FD00020640320BDE8F88307F0FE002168086133
:103FE000334642463E49204600F07EF908B10120A2
:103FF000F0E700BF00200090206840690090206832
:104000008069009000BF00BF32464146204600F064
:104010002DFA50B1206C042805D12068006840F4C6
:104020000070216808600120D4E7B9F1010F03D1C5
:10403000E8B22168086117E0C5F30720216808612C
:1040400032464146204600F011FA50B1206C042857
:1040500005D12068006840F40070216808600120E4
:10406000B8E7E8B22168086132464146204600F0D0
:10407000FDF950B1206C042805D12068006840F497
:104080000070216808600120A4E72068006840F4FF
:10409000807021680860434600224FF001112046DD
:1040A000009600F0C2F858B12068006800F48070F3
:1040B000B0F5807F02D14FF400702064032089E7BF
:1040C000F8B240F0010021680861334642460449D5
:1040D000204600F009F908B101207BE7002079E7CC
:1040E000020001002DE9F84304468846154699462A
:1040F000DDE908672068006840F480702168086086
:10410000334600224FF001112046009700F08DF851
:1041100060B12068006800F48070B0F5807F02D143
:104120004FF4007020640320BDE8F88308F0FE001F
:10413000216808613B4632462149204600F0D4F808
:1041400008B10120F0E700BF00200090206840691E
:10415000009020688069009000BF00BF3A46314659
:10416000204600F083F950B1206C042805D1206866
:10417000006840F40070216808600120D4E7B9F1BC
:10418000010F03D1E8B22168086117E0C5F30720E9
:10419000216808613A463146204600F067F950B17F
:1041A000206C042805D12068006840F40070216864
:1041B00008600120B8E7E8B2216808610020B3E791
:1041C0000200010070B504460D46164625E0204663
:1041D000FFF7B9FE08B1012070BD681CE8B1FEF719
:1041E000E1F8801BA84200D8BDB920684069C0F33F
:1041F000800090B900202063202084F83D0000203A
:1042000084F83E00206C40F02000206400BF0020B5
:1042100084F83C0000BF0120DEE720684069C0F35D
:1042200080000028D3D00020D6E72DE9F0410446D5
:104230000D4617461E46DDF8188038E0701CA8B3FE
:10424000FEF7B0F8A0EB0800B04200D876BBC5F38B
:10425000074001280AD120684069A9B20840A9B2E4
:10426000884201D101200BE0002009E0206880692C
:10427000A9B20840A9B2884201D1012000E0002083
:10428000B84214D100202063202084F83D00002093
:1042900084F83E00206C40F02000206400BF002025
:1042A00084F83C0000BF0120BDE8F081FFE7C5F3C2
:1042B000074001280AD120684069A9B20840A9B284
:1042C000884201D101200BE0002009E020688069CC
:1042D000A9B20840A9B2884201D1012000E0002023
:1042E000B842ABD00020DFE72DE9F04104460D468F
:1042F00016461F4658E020684069C0F38020E8B1A8
:104300002068006840F40070216808606FF48060E5
:104310002168486100202063202084F83D000020AF
:1043200084F83E00206C40F00400206400BF0020B0
:1043300084F83C0000BF0120BDE8F081701C90B300
:10434000FEF730F8C01BB04200D866BBC5F307408B
:1043500001280AD120684069A9B20840A9B2884260
:1043600001D101200BE0002009E020688069A9B29A
:104370000840A9B2884201D1012000E0002090B994
:1043800000202063202084F83D00002084F83E00B7
:10439000206C40F02000206400BF002084F83C0026
:1043A00000BF0120C8E7FFE7C5F3074001280AD195
:1043B00020684069A9B20840A9B2884201D1012011
:1043C0000BE0002009E020688069A9B20840A9B28A
:1043D000884201D1012000E0002000288BD000207D
:1043E000AAE770B504460D46164637E020684069D6
:1043F000C0F30010A0B16FF01000216848610020E8
:104400002063202084F83D00002084F83E00206CCA
:10441000206400BF002084F83C0000BF012070BD74
:10442000FDF7C0FF801BA84200D8BDB920684069D5
:10443000C0F3801090B900202063202084F83D0054
:10444000002084F83E00206C40F02000206400BF73
:10445000002084F83C0000BF0120E0E720684069AC
:10446000C0F380100028C1D00020D8E770B5044602
:104470000D46164625E02046FFF765FD08B10120F0
:1044800070BD681CE8B1FDF78DFF801BA84200D805
:10449000BDB920684069C0F3C01090B90020206306
:1044A000202084F83D00002084F83E00206C40F07D
:1044B0002000206400BF002084F83C0000BF0120E1
:1044C000DEE720684069C0F3C0100028D3D0002088
:1044D000D6E7000010B5002204210E48FDF75CFF6E
:1044E000642002F00BFE012204210A48FDF754FF6C
:1044F000C82002F003FE002204210648FDF74CFF0D
:10450000642002F0FBFD012204210248FDF744FF74
:1045100010BD0000000C014010B500220421064827
:10452000FDF73AFF642002F0E9FD01220421024870
:10453000FDF732FF10BD0000000C01401CB5044621
:1045400000200190009001A93B2000F0C5F86946C9
:104550003C2000F0C1F89DF800009DF8041040EAEE
:10456000012016490988401A00B2208001A93D2087
:1045700000F0B2F869463E2000F0AEF89DF8000069
:104580009DF8041040EA01200D490988401A00B244
:10459000608001A93F2000F09FF86946402000F0AC
:1045A0009BF89DF800009DF8041040EA01200549A1
:1045B0000988401A00B2A0801CBD000068020020DB
:1045C0006C0200207002002010B50446204600F066
:1045D00005F8A01DFFF7B2FF10BD00001CB5044692
:1045E00000200190009001A9432000F075F8694671
:1045F000442000F071F89DF800009DF8041040EA96
:10460000012016490988401A00B2208001A94520DE
:1046100000F062F86946462000F05EF89DF8000060
:104620009DF8041040EA01200D490988401A00B2A3
:10463000608001A9472000F04FF86946482000F04B
:104640004BF89DF800009DF8041040EA0120054950
:104650000988401A00B2A0801CBD0000740200202E
:10466000780200207C02002008B580216B2000F039
:1046700045F80020009003E069466B2000F02CF81C
:104680009DF800004028F7D100216B2000F036F89B
:1046900018211B2000F032F800211C2000F02EF819
:1046A0000021382000F02AF800216A2000F026F8C6
:1046B0000121192000F022F801211A2000F01EF833
:1046C00001216B2000F01AF800216C2000F016F890
:1046D00000F028F808BD00003EB504460D464FF432
:1046E0007A7001210B462246CDE900510290D1217A
:1046F0000148FDF745FF3EBD8C02002013B584B094
:1047000004464FF47A70012105AA0B46CDE9002139
:1047100002902246D0210248FEF7ECF806B010BD08
:104720008C0200202DE9F04F87B000200590069004
:1047300003900490824603A8FFF700FF34E005A829
:10474000FFF7FCFEBDF91400BDF90C10401AB0F5DE
:10475000C87F01DA012000E00020E0B1BDF91600B9
:10476000BDF90E10401AB0F5C87F01DA012000E053
:10477000002080B1BDF91800BDF91010401AB0F545
:10478000C87F01DA012000E0002020B10AF1010019
:1047900000F0FF0A01E04FF0000ADDE90501CDE974
:1047A0000301062002F0AAFCBAF1640FC7DB002067
:1047B00000900190029000240025002600278046EA
:1047C000814683461DE06846FFF7FEFEBDF9060000
:1047D0000444BDF908000544BDF90A00A0F5804075
:1047E0000644BDF900000744BDF902008044BDF94C
:1047F00004008144062002F081FC0BF1010000F06E
:10480000FF0BBBF1640FDEDB642094FBF0F00F497B
:104810000860642095FBF0F00D490860642096FB69
:10482000F0F00C490860642097FBF0F00A4908603A
:10483000642098FBF0F009490860642099FBF0F0CF
:104840000749086007B0BDE8F08F0000680200204B
:104850006C02002070020020740200207802002008
:104860007C02002010B505220E49102000F08EF8C1
:1048700005220D49302000F0DDF8052209491020FD
:1048800000F084F8002108E00648405C064A525CCB
:10489000904201D0012010BD491C0529F4DB002005
:1048A000F9E70000F44900206002002010B5C8209C
:1048B000FDF7C4FB02E00A20FDF7C0FBFFF7D2FFC3
:1048C0000028F8D100F030F82F2109A0FBF79FFC59
:1048D00028B12F2106A0FBF79AFC401C00E004A0A1
:1048E0000446B622214608A001F084FB10BD00005A
:1048F000696E746572666163655C496E745F534985
:10490000323452312E6300005B25733A25645D20FA
:10491000205349323452315F496E69742073756394
:10492000636573730D0A000010B500224FF48071A7
:104930001448FDF731FD052213492A2000F07AF8CA
:104940000121212000F098F80121222000F094F8A4
:104950002821252000F090F81221312000F08CF859
:104960000621262000F088F80F21202000F084F88E
:10497000FF21272000F080F8012211020148FDF7F5
:104980000BFD10BD00080140600200202DE9F04140
:1049900007460D461646002210210C48FDF7FCFC88
:1049A000384600F0FFFC8046002405E0002000F0BF
:1049B000F9FC2855601CC4B2B442F7DB0122102177
:1049C0000248FDF7E9FC4046BDE8F08100080140DF
:1049D00070B50446002210210848FDF7DDFC204692
:1049E00000F0E0FC002000F0DDFC05460122102173
:1049F0000248FDF7D1FC284670BD000000080140C8
:104A000070B504460720FFF7E3FF05462946272037
:104A100000F032F805F0400050B11222214661202A
:104A2000FFF7B4FFFF21E22000F026F8002070BD60
:104A30000120FCE72DE9F04107460D46164600220D
:104A400010210C48FDF7A8FC384600F0ABFC80466E
:104A5000002404E0285D00F0A5FC601CC4B2B44250
:104A6000F8DB012210210348FDF796FC4046BDE823
:104A7000F08100000008014070B505460C46002298
:104A800010210848FDF788FC284600F08BFC0646FC
:104A9000204600F087FC012210210248FDF77CFC33
:104AA000304670BD0008014008B5002000906946FE
:104AB0000348008800F0B5FFBDF8000008BD000005
:104AC000800200200EB500224FF480513048FDF7DF
:104AD00063FC022002F012FB012211032C48FDF7B7
:104AE0005BFC022002F00AFB002002900190009083
:104AF00002AA40F20F112748008801F0EFF99DF853
:104B0000081025A001F076FA02AA4FF48871214816
:104B1000008801F0E3F99DF8081025A001F06AFA79
:104B200001AA40F20F111B48008801F0EBF9BDF813
:104B3000041026A001F05EFA07E0694615480088D7
:104B400000F034FF022002F0D9FA9DF8000000289E
:104B5000F3D022A001F04EFA0E48008800F0FAFFD0
:104B600002210C48008801F031F81421094800881E
:104B700001F0C4F814210748008801F093F81BA045
:104B800001F038FA0348008801F091F90EBD0000E9
:104B9000000C014080020020564C35334C31582027
:104BA0004D6F64656C5F49443A2025580A00000047
:104BB000564C35334C3158204D6F64756C655F54DD
:104BC0007970653A2025580A00000000564C3533AC
:104BD0004C31583A2025580A00000000436869709B
:104BE00020626F6F7465640A00000000564C353314
:104BF0004C315820556C747261204C6974652044A6
:104C00007269766572204578616D706C6520727589
:104C10006E6E696E67202E2E2E0A000010B50446B7
:104C2000A1882068FDF7AEFB10BD10B50446A18831
:104C300001222068FDF7B0FB10BD10B50446A18825
:104C400000222068FDF7A8FB10BD000070B50446E7
:104C5000B4F90600B0F57A7F12DD2F2119A0FBF719
:104C6000D6FA28B12F2117A0FBF7D1FA401C00E09B
:104C700014A005460922294618A001F0BBF970BD11
:104C8000A08828B9B4F9060021680968486316E0CD
:104C9000A088042805D1B4F9060021680968886352
:104CA0000DE0A088082805D1B4F90600216809683C
:104CB000C86304E0B4F9060021680968086400BF0D
:104CC000DDE70000696E746572666163655C496E5C
:104CD000745F6D6F746F722E630000005B25733A12
:104CE00025645D2020737065656420697320746F8E
:104CF0006F206C617267652C206D6178206973206C
:104D0000313030300D0A000010B50446A08820B9BB
:104D1000002021680968486313E0A088042804D1B2
:104D200000202168096888630BE0A088082804D166
:104D3000002021680968C86303E000202168096831
:104D40000864A1882068FEF7B5FF10BD08B502F021
:104D5000B5FB0090002455E0601CC4B22A480078DE
:104D600030B92A48FFF769FF2948FFF766FF09E0D5
:104D700025480078012805D12448FFF756FF24482C
:104D8000FFF753FF2348007860B9052094FBF0F14A
:104D900000FB114010BB2048FFF740FF1F48FFF702
:104DA0003DFF26E01B48007801280DD1204604EB8A
:104DB000D0714910A4EB410181B91748FFF72EFFCC
:104DC0001648FFF72BFF14E012480078022806D19E
:104DD0001148FFF732FF1148FFF72FFF09E00D4898
:104DE0000078032805D10C48FFF71FFF0B48FFF799
:104DF0001CFF0A2C00D1002400BF6421684602F089
:104E00006DFA00BFA8E7000000010020E0000020CC
:104E1000E800002001010020F8000020F000002040
:104E200000B585B00020019002900390049000BF6F
:104E30002D48806940F010002B4988610846806940
:104E400000F01000009000BF00BF00BF084680695E
:104E500040F0200088610846806900F02000009042
:104E600000BF00BF00BF0846806940F004008861B1
:104E70000846806900F00400009000BF00BF00BF3A
:104E80000846806940F0080088610846806900F0A3
:104E90000800009000BF00BF012241F61011134826
:104EA000FDF77AFA01224DF204011148FDF774FA78
:104EB00041F6101001900120029000200390022082
:104EC000049001A90948FDF7CDF84DF204000190C6
:104ED00001200290002003900220049001A90448C0
:104EE000FDF7C0F805B000BD001002400008014009
:104EF000000C014010B50B480B4908600B48486096
:104F0000002109488160C1604FF4804101610021A6
:104F100041618161C1610162FDF74AFA08B1FDF7A3
:104F200068F810BD005400408C020020801A060072
:104F300010B50B480B4908600B4848600021094830
:104F40008160C1604FF48041016100214161816154
:104F5000C1610162FDF72CFA08B1FDF74AF810BDF6
:104F600000580040E0020020801A060010B50E48EC
:104F70000E4908604FF48270486000210B48816040
:104F8000C160016141614FF4007181611821C1610B
:104F900000210162416281620A21C162FEF7DCF9EF
:104FA00008B1FDF726F810BD0030014034030020A1
:104FB00000B595B0002011901290139014900F90AE
:104FC00010901C2108A8FBF710F920216846FBF778
:104FD0000CF92B482B490860032048600021294820
:104FE000816040F2E731C16000210161416181616E
:104FF000FEF70EFC08B1FCF7FCFF4FF48050119057
:1050000011A92048FEF78AFC08B1FCF7F2FF1D4801
:10501000FEF71CFE08B1FCF7ECFF00200F9010908B
:105020000FA91848FEF7B2FB08B1FCF7E2FF6020B9
:105030000890C820099000200A900B900C900D90C9
:105040000E90082208A90F48FEF77EFD08B1FCF774
:10505000D0FF0020009001900290039004904FF444
:10506000005005900020079069460648FEF754FB63
:1050700008B1FCF7BEFF0348FEF7D6FC15B000BD33
:10508000002C01408C03002000B58DB00020099059
:105090000A900B900C90079008901C216846FBF733
:1050A000A4F84FF0804020490860032048600021A8
:1050B0001D48816040F2E731C160002101618161DA
:1050C000FEF7A6FB08B1FCF794FF4FF4805009905F
:1050D00009A91548FEF722FC08B1FCF78AFF12481F
:1050E000FEF7B4FD08B1FCF784FF0020079008909C
:1050F00007A90D48FEF74AFB08B1FCF77AFF6020CC
:105100000090C8200190002002900490042269467B
:105110000548FEF719FD08B1FCF76BFF0248FEF7E2
:1051200083FC0DB000BD0000D403002000B58DB09D
:10513000002009900A900B900C90079008901C2179
:105140006846FBF752F82048204908600320486071
:1051500000211E48816040F2E731C16000210161F9
:105160008161FEF755FB08B1FCF743FF4FF4805017
:10517000099009A91548FEF7D1FB08B1FCF739FFE2
:105180001248FEF763FD08B1FCF733FF00200790DB
:10519000089007A90D48FEF7F9FA08B1FCF729FFB6
:1051A00060200090C820019000200290049000220E
:1051B00069460648FEF7C8FC08B1FCF71AFF034829
:1051C000FEF732FC0DB000BD000400401C040020BE
:1051D00000B58DB0002009900A900B900C900790BC
:1051E00008901C216846FBF700F820482049086019
:1051F0000320486000211E48816040F2E731C16011
:10520000002101618161FEF703FB08B1FCF7F1FEAB
:105210004FF48050099009A91548FEF77FFB08B1AB
:10522000FCF7E7FE1248FEF711FD08B1FCF7E1FEBE
:1052300000200790089007A90D48FEF7A7FA08B1CB
:10524000FCF7D7FE60200090C8200190002002905B
:1052500004900C2269460648FEF776FC08B1FCF77C
:10526000C8FE0348FEF7E0FB0DB000BD000800409B
:105270006404002010B50B480B4908604FF4E1307E
:105280004860002108488160C16001610C214161D2
:1052900000218161C161FEF777FD08B1FCF7A9FE2D
:1052A00010BD000000440040AC04002000BFFEE739
:1052B00000BFFEE708B502F001F9009013E042F2EA
:1052C00010720121002001F043FE044614B1FFF7E3
:1052D00001F901E0FFF720F900BF0621684601F05F
:1052E000FDFF00BF00BFEAE72DE9F05F04464FF085
:1052F0007F594FF07C512046FAF7F1FF8246254650
:105300002E460C48A0EB6606354629465046FAF76D
:10531000E6FF83462946FAF7E2FF80464946FAF758
:10532000DBFF07462946FAF7DAFF05462846BDE8BF
:10533000F09F0000DF59375F08B508490968C908C0
:105340004FF47A72B1FBF2F14143009100BF00BF0C
:1053500000994A1E00920029F9D108BD0C000020D6
:10536000F8B504460E461546334601220221204672
:10537000009500F029F828B1606D40F020006065CC
:105380000320F8BD3346002280212046009500F01E
:105390001BF828B1606D40F0200060650320F0E745
:1053A0000020EEE701B582B0002001904FF47A7042
:1053B000012301AA02A900900248FEF76FF89DF8A8
:1053C00004000EBD340300202DE9F84F04460D46BD
:1053D00090461E46DDF82890FCF7E4FFA0EB09009C
:1053E000371AFCF7DFFF82462C480068C0F3CB3049
:1053F0007843009045E0701C002842D0FCF7D2FFB3
:10540000A0EB0A00B84200D2A7BB2068406820F099
:10541000E000216848606068B0F5827F0DD1A06827
:10542000B0F5004F03D0A068B0F5806F05D12068BB
:10543000006820F0400021680860A06AB0F5005FB5
:105440000DD100BF2068006820F40050216808607A
:105450002068006840F400502168086000BF012007
:1054600084F8510000BF002084F8500000BF0320E2
:10547000BDE8F88FFFE7009800B900270098401EAC
:105480000090206880682840A84201D1012000E0F7
:1054900000204045AFD10020EAE700000C000020CA
:1054A00010B501F0FBFF012801D001F0C9FEFDF7A6
:1054B0003BFB10BD00B58FB0282105A8FAF795FE7B
:1054C00014216846FAF791FE012005900004069029
:1054D000002007900120099002200C90C1030D913B
:1054E0004FF4E0110E9105A8FDF704FD08B1FCF79B
:1054F00080FD0F20009002200190002002904FF4C8
:10550000806003900020049002216846FDF7CEFBE6
:1055100008B1FCF76EFD0FB000BD704710B5026812
:105520001C4B984208D0B0F1804F05D01A4B9842DE
:1055300002D01A4B984203D122F070024B681A43F2
:10554000144B984208D0B0F1804F05D0124B9842CE
:1055500002D0124B984203D122F44072CB681A4316
:1055600022F080034C6943EA040202608B68C36244
:105570000B688362074B984201D10B6903630123D7
:105580004361036903F001031BB1036923F00103C5
:10559000036110BD002C01400004004000080040E1
:1055A00030B501F01F05012404FA05F3046A9C4399
:1055B0000462046A01F01F0502FA05F52C43046237
:1055C00030BD30B50C46816821F47F4142EA0325A5
:1055D00025432943816030BD0A46816821F070016E
:1055E00042F00703194381607047000030B5026A3A
:1055F000056A25F0010505624368846924F070049A
:1056000024F003040D682C4322F002028D682A4323
:105610000D4DA84206D100BF22F00802CD682A43F2
:1056200022F00402084DA84207D123F4807323F42A
:1056300000734D692B438D692B43436084614D6832
:105640004563026230BD0000002C014030B5026AA3
:10565000056A25F0100505624368846924F4E04476
:1056600024F440740D6844EA052422F020028D6879
:1056700042EA05120E4DA84207D100BF22F0800277
:10568000CD6842EA051222F04002094DA84209D134
:1056900023F4806323F400634D6943EA85038D6935
:1056A00043EA8503436084614D688563026230BDCF
:1056B000002C014030B5026A056A25F48075056248
:1056C0004368C46924F0700424F003040D682C437B
:1056D00022F400728D6842EA05220F4DA84207D1DC
:1056E00000BF22F40062CD6842EA052222F4806203
:1056F000094DA84209D123F4805323F400534D6986
:1057000043EA05138D6943EA05134360C4614D689C
:10571000C563026230BD0000002C014030B5036A51
:10572000056A25F4805505624468C26922F4E042A6
:1057300022F440720D6842EA052223F400538D687A
:1057400043EA0533064DA84204D124F480444D6950
:1057500044EA85144460C2614D680564036230BD4B
:10576000002C014030B50B461446026A056A25F04C
:1057700001050562816921F0F00141EA041122F07E
:105780000A021A438161026230BD30B50B461446ED
:10579000026A056A25F010050562816921F47041ED
:1057A00041EA043122F0A00242EA0312816102625E
:1057B00030BD00BF00BF02680C3252E8002F22F457
:1057C000907102680C3242E80013002BF3D100BF45
:1057D00000BF00BF0268143252E8002F22F001011E
:1057E0000268143242E80013002BF3D100BF016BB2
:1057F00001290ED100BF00BF02680C3252E8002F11
:1058000022F0100102680C3242E80013002BF3D1A1
:1058100000BF202180F84210002101637047000082
:1058200070B504462168096921F44051E2681143CA
:10583000226811612269A1681143626941EA020587
:105840002168C96841F20C62914329432268D16002
:105850002168496921F44071A269114322685161AC
:105860002D4A2168914202D1FDF7FCFA01E0FDF7D3
:10587000E9FA00EBC00101EB001162689200B1FB94
:10588000F2F100EBC00202EB001263689B00B2FB76
:10589000F3F26423B2FBF3F202EBC20303EB021256
:1058A000A1EB8201322202EB01116422B1FBF2F181
:1058B00001F0F00100EBC00202EB001263689B00F4
:1058C000B2FBF3F26423B2FBF3F201EB021200EB42
:1058D000C00101EB001163689B00B1FBF3F100EB29
:1058E000C00303EB00136668B600B3FBF6F364264F
:1058F000B3FBF6F303EBC30606EB0313A1EB830143
:10590000322303EB01116423B1FBF3F101F00F012A
:1059100011442268916070BD003801402DE9F843C0
:1059200004460D4617469846089E31E0701C70B339
:10593000FCF738FDA0EB0800B04200D816B90320F0
:10594000BDE8F8832068C06800F00400F8B1802D3D
:105950001ED0402D1CD020680068C0F3C000B0B13C
:1059600000BF002000902068006800902068406818
:10597000009000BF00BF2046FFF71BFF08206064B7
:1059800000BF002084F8400000BF0120D8E7FFE7F7
:10599000206800682840A84201D1012000E00020D2
:1059A000B842C3D00020CBE700BFFEE7F8B50646FB
:1059B0000C460025002000906A46E521304600F0A4
:1059C0008DFA05439DF8000020702846F8BD7CB58F
:1059D00006460D4600246946304600F04AF8044366
:1059E00001AA3121304600F079FA044364B99DF8E8
:1059F000040000F001009DF80010884202D101204F
:105A0000287001E00020287020467CBD70B5054656
:105A1000002401228621284600F094FA04432046FF
:105A200070BDF8B506460C4600256A4696213046FC
:105A300000F068FA0543BDF8000020802846F8BD54
:105A4000F8B506460C4600256A464B21304600F064
:105A500045FA2843C5B29DF80000142801D1012061
:105A600020809DF800000A2801D10220208068B221
:105A7000F8BDF8B506460C4600256A46302130468A
:105A800000F02CFA05439DF8000000F01000009093
:105A90009DF80000001108B9012000E000202070EE
:105AA0002846F8BDF8B506460C4600256A465E2134
:105AB000304600F027FA0543BDF80000B0F5D77F67
:105AC0002FD00EDC602829D006DC1D281ED01E2811
:105AD00020D0512836D11CE0AD2823D0D62831D192
